{
  "_format": "hh-sol-artifact-1",
  "contractName": "Counter",
  "sourceName": "contracts/Counter.sol",
  "abi": [
    {
      "inputs": [],
      "stateMutability": "nonpayable",
      "type": "constructor"
    },
    {
      "inputs": [
        {
          "internalType": "uint256",
          "name": "num",
          "type": "uint256"
        }
      ],
      "name": "add",
      "outputs": [],
      "stateMutability": "nonpayable",
      "type": "function"
    },
    {
      "inputs": [],
      "name": "count",
      "outputs": [],
      "stateMutability": "nonpayable",
      "type": "function"
    },
    {
      "inputs": [],
      "name": "counter",
      "outputs": [
        {
          "internalType": "uint256",
          "name": "",
          "type": "uint256"
        }
      ],
      "stateMutability": "view",
      "type": "function"
    }
  ],
  "bytecode": "0x608060405234801561001057600080fd5b506000808190555061020f806100276000396000f3fe608060405234801561001057600080fd5b50600436106100415760003560e01c806306661abd146100465780631003e2d21461005057806361bc221a1461006c575b600080fd5b61004e61008a565b005b61006a600480360381019061006591906100fd565b6100a1565b005b6100746100bc565b6040516100819190610139565b60405180910390f35b60016000546100999190610183565b600081905550565b806000808282546100b29190610183565b9250508190555050565b60005481565b600080fd5b6000819050919050565b6100da816100c7565b81146100e557600080fd5b50565b6000813590506100f7816100d1565b92915050565b600060208284031215610113576101126100c2565b5b6000610121848285016100e8565b91505092915050565b610133816100c7565b82525050565b600060208201905061014e600083018461012a565b92915050565b7f4e487b7100000000000000000000000000000000000000000000000000000000600052601160045260246000fd5b600061018e826100c7565b9150610199836100c7565b9250827fffffffffffffffffffffffffffffffffffffffffffffffffffffffffffffffff038211156101ce576101cd610154565b5b82820190509291505056fea26469706673582212205f33d43342ab3efa6a44f0c9c224aa4514f5daca166704ef8a4991051cfa87a264736f6c634300080b0033",
  "linkReferences": {},
  "deployedLinkReferences": {}
}