{
  "contracts/Counter.sol": {
    "Counter": {
      "abi": [
        {
          "inputs": [],
          "stateMutability": "nonpayable",
          "type": "constructor"
        },
        {
          "inputs": [
            {
              "internalType": "uint256",
              "name": "num",
              "type": "uint256"
            }
          ],
          "name": "add",
          "outputs": [],
          "stateMutability": "nonpayable",
          "type": "function"
        },
        {
          "inputs": [],
          "name": "count",
          "outputs": [],
          "stateMutability": "nonpayable",
          "type": "function"
        },
        {
          "inputs": [],
          "name": "counter",
          "outputs": [
            {
              "internalType": "uint256",
              "name": "",
              "type": "uint256"
            }
          ],
          "stateMutability": "view",
          "type": "function"
        }
      ],
      "evm": {
        "bytecode": {
          "linkReferences": {},
          "object": "608060405234801561001057600080fd5b506000808190555061020f806100276000396000f3fe608060405234801561001057600080fd5b50600436106100415760003560e01c806306661abd146100465780631003e2d21461005057806361bc221a1461006c575b600080fd5b61004e61008a565b005b61006a600480360381019061006591906100fd565b6100a1565b005b6100746100bc565b6040516100819190610139565b60405180910390f35b60016000546100999190610183565b600081905550565b806000808282546100b29190610183565b9250508190555050565b60005481565b600080fd5b6000819050919050565b6100da816100c7565b81146100e557600080fd5b50565b6000813590506100f7816100d1565b92915050565b600060208284031215610113576101126100c2565b5b6000610121848285016100e8565b91505092915050565b610133816100c7565b82525050565b600060208201905061014e600083018461012a565b92915050565b7f4e487b7100000000000000000000000000000000000000000000000000000000600052601160045260246000fd5b600061018e826100c7565b9150610199836100c7565b9250827fffffffffffffffffffffffffffffffffffffffffffffffffffffffffffffffff038211156101ce576101cd610154565b5b82820190509291505056fea26469706673582212205f33d43342ab3efa6a44f0c9c224aa4514f5daca166704ef8a4991051cfa87a264736f6c634300080b0033",
          "opcodes": "PUSH1 0x80 PUSH1 0x40 MSTORE CALLVALUE DUP1 ISZERO PUSH2 0x10 JUMPI PUSH1 0x0 DUP1 REVERT JUMPDEST POP PUSH1 0x0 DUP1 DUP2 SWAP1 SSTORE POP PUSH2 0x20F DUP1 PUSH2 0x27 PUSH1 0x0 CODECOPY PUSH1 0x0 RETURN INVALID PUSH1 0x80 PUSH1 0x40 MSTORE CALLVALUE DUP1 ISZERO PUSH2 0x10 JUMPI PUSH1 0x0 DUP1 REVERT JUMPDEST POP PUSH1 0x4 CALLDATASIZE LT PUSH2 0x41 JUMPI PUSH1 0x0 CALLDATALOAD PUSH1 0xE0 SHR DUP1 PUSH4 0x6661ABD EQ PUSH2 0x46 JUMPI DUP1 PUSH4 0x1003E2D2 EQ PUSH2 0x50 JUMPI DUP1 PUSH4 0x61BC221A EQ PUSH2 0x6C JUMPI JUMPDEST PUSH1 0x0 DUP1 REVERT JUMPDEST PUSH2 0x4E PUSH2 0x8A JUMP JUMPDEST STOP JUMPDEST PUSH2 0x6A PUSH1 0x4 DUP1 CALLDATASIZE SUB DUP2 ADD SWAP1 PUSH2 0x65 SWAP2 SWAP1 PUSH2 0xFD JUMP JUMPDEST PUSH2 0xA1 JUMP JUMPDEST STOP JUMPDEST PUSH2 0x74 PUSH2 0xBC JUMP JUMPDEST PUSH1 0x40 MLOAD PUSH2 0x81 SWAP2 SWAP1 PUSH2 0x139 JUMP JUMPDEST PUSH1 0x40 MLOAD DUP1 SWAP2 SUB SWAP1 RETURN JUMPDEST PUSH1 0x1 PUSH1 0x0 SLOAD PUSH2 0x99 SWAP2 SWAP1 PUSH2 0x183 JUMP JUMPDEST PUSH1 0x0 DUP2 SWAP1 SSTORE POP JUMP JUMPDEST DUP1 PUSH1 0x0 DUP1 DUP3 DUP3 SLOAD PUSH2 0xB2 SWAP2 SWAP1 PUSH2 0x183 JUMP JUMPDEST SWAP3 POP POP DUP2 SWAP1 SSTORE POP POP JUMP JUMPDEST PUSH1 0x0 SLOAD DUP2 JUMP JUMPDEST PUSH1 0x0 DUP1 REVERT JUMPDEST PUSH1 0x0 DUP2 SWAP1 POP SWAP2 SWAP1 POP JUMP JUMPDEST PUSH2 0xDA DUP2 PUSH2 0xC7 JUMP JUMPDEST DUP2 EQ PUSH2 0xE5 JUMPI PUSH1 0x0 DUP1 REVERT JUMPDEST POP JUMP JUMPDEST PUSH1 0x0 DUP2 CALLDATALOAD SWAP1 POP PUSH2 0xF7 DUP2 PUSH2 0xD1 JUMP JUMPDEST SWAP3 SWAP2 POP POP JUMP JUMPDEST PUSH1 0x0 PUSH1 0x20 DUP3 DUP5 SUB SLT ISZERO PUSH2 0x113 JUMPI PUSH2 0x112 PUSH2 0xC2 JUMP JUMPDEST JUMPDEST PUSH1 0x0 PUSH2 0x121 DUP5 DUP3 DUP6 ADD PUSH2 0xE8 JUMP JUMPDEST SWAP2 POP POP SWAP3 SWAP2 POP POP JUMP JUMPDEST PUSH2 0x133 DUP2 PUSH2 0xC7 JUMP JUMPDEST DUP3 MSTORE POP POP JUMP JUMPDEST PUSH1 0x0 PUSH1 0x20 DUP3 ADD SWAP1 POP PUSH2 0x14E PUSH1 0x0 DUP4 ADD DUP5 PUSH2 0x12A JUMP JUMPDEST SWAP3 SWAP2 POP POP JUMP JUMPDEST PUSH32 0x4E487B7100000000000000000000000000000000000000000000000000000000 PUSH1 0x0 MSTORE PUSH1 0x11 PUSH1 0x4 MSTORE PUSH1 0x24 PUSH1 0x0 REVERT JUMPDEST PUSH1 0x0 PUSH2 0x18E DUP3 PUSH2 0xC7 JUMP JUMPDEST SWAP2 POP PUSH2 0x199 DUP4 PUSH2 0xC7 JUMP JUMPDEST SWAP3 POP DUP3 PUSH32 0xFFFFFFFFFFFFFFFFFFFFFFFFFFFFFFFFFFFFFFFFFFFFFFFFFFFFFFFFFFFFFFFF SUB DUP3 GT ISZERO PUSH2 0x1CE JUMPI PUSH2 0x1CD PUSH2 0x154 JUMP JUMPDEST JUMPDEST DUP3 DUP3 ADD SWAP1 POP SWAP3 SWAP2 POP POP JUMP INVALID LOG2 PUSH5 0x6970667358 0x22 SLT KECCAK256 0x5F CALLER 0xD4 CALLER TIMESTAMP 0xAB RETURNDATACOPY STATICCALL PUSH11 0x44F0C9C224AA4514F5DACA AND PUSH8 0x4EF8A4991051CFA DUP8 LOG2 PUSH5 0x736F6C6343 STOP ADDMOD SIGNEXTEND STOP CALLER "
        },
        "methodIdentifiers": {
          "add(uint256)": "1003e2d2",
          "count()": "06661abd",
          "counter()": "61bc221a"
        }
      }
    }
  }
}